{
  "contractName": "Funder",
  "abi": [
    {
      "inputs": [],
      "name": "numOfFunders",
      "outputs": [
        {
          "internalType": "uint256",
          "name": "",
          "type": "uint256"
        }
      ],
      "stateMutability": "view",
      "type": "function",
      "constant": true
    },
    {
      "stateMutability": "payable",
      "type": "receive",
      "payable": true
    },
    {
      "inputs": [],
      "name": "fund",
      "outputs": [],
      "stateMutability": "payable",
      "type": "function",
      "payable": true
    },
    {
      "inputs": [
        {
          "internalType": "uint256",
          "name": "withdrawAmount",
          "type": "uint256"
        }
      ],
      "name": "withdraw",
      "outputs": [],
      "stateMutability": "nonpayable",
      "type": "function"
    }
  ],
  "bytecode": "0x608060405234801561000f575f80fd5b506103498061001d5f395ff3fe608060405260043610610037575f3560e01c80632e1a7d4d14610042578063af7f2c9b1461006a578063b60d4288146100945761003e565b3661003e57005b5f80fd5b34801561004d575f80fd5b50610068600480360381019061006391906101d4565b61009e565b005b348015610075575f80fd5b5061007e610130565b60405161008b919061020e565b60405180910390f35b61009c610135565b005b671bc16d674ec800008111156100e9576040517f08c379a00000000000000000000000000000000000000000000000000000000081526004016100e090610281565b60405180910390fd5b3373ffffffffffffffffffffffffffffffffffffffff166108fc8290811502906040515f60405180830381858888f1935050505015801561012c573d5f803e3d5ffd5b5050565b5f5481565b3360015f805481526020019081526020015f205f6101000a81548173ffffffffffffffffffffffffffffffffffffffff021916908373ffffffffffffffffffffffffffffffffffffffff1602179055505f80815480929190610196906102cc565b9190505550565b5f80fd5b5f819050919050565b6101b3816101a1565b81146101bd575f80fd5b50565b5f813590506101ce816101aa565b92915050565b5f602082840312156101e9576101e861019d565b5b5f6101f6848285016101c0565b91505092915050565b610208816101a1565b82525050565b5f6020820190506102215f8301846101ff565b92915050565b5f82825260208201905092915050565b7f4d617820322045544820776974686472617720616c6c6f7765640000000000005f82015250565b5f61026b601a83610227565b915061027682610237565b602082019050919050565b5f6020820190508181035f8301526102988161025f565b9050919050565b7f4e487b71000000000000000000000000000000000000000000000000000000005f52601160045260245ffd5b5f6102d6826101a1565b91507fffffffffffffffffffffffffffffffffffffffffffffffffffffffffffffffff82036103085761030761029f565b5b60018201905091905056fea26469706673582212205866420fafb43dca804e64b660668f186a5360496a9b24051c61775b6ecb491964736f6c63430008150033",
  "immutableReferences": {},
  "source": "// SPDX-License-Identifier: MIT\npragma solidity ^0.8.21;\n\ncontract Funder {\n    uint256 public numOfFunders;\n\n    mapping(uint256 => address) private funders;\n\n    function fund() external payable {\n        funders[numOfFunders] = msg.sender;\n        numOfFunders++;\n    }\n\n    function withdraw(uint256 withdrawAmount) external {\n        require(withdrawAmount <= 2 ether, \"Max 2 ETH withdraw allowed\");\n        payable(msg.sender).transfer(withdrawAmount);\n    }\n\n    receive() external payable {}\n}\n",
  "sourcePath": "/home/lenovo/Documents/personal/dapp/fund/contracts/Funder.sol",
  "compiler": {
    "name": "solc",
    "version": "0.8.21+commit.d9974bed.Emscripten.clang"
  },
  "schemaVersion": "3.4.16",
  "updatedAt": "2025-07-14T10:42:51.075Z",
  "networkType": "ethereum",
  "devdoc": {
    "kind": "dev",
    "methods": {},
    "version": 1
  },
  "userdoc": {
    "kind": "user",
    "methods": {},
    "version": 1
  }
}